{
  "_format": "hh-sol-artifact-1",
  "contractName": "ChildMintableERC721",
  "sourceName": "contracts/ChildMintableERC721.sol",
  "abi": [
    {
      "inputs": [
        {
          "internalType": "string",
          "name": "name_",
          "type": "string"
        },
        {
          "internalType": "string",
          "name": "symbol_",
          "type": "string"
        },
        {
          "internalType": "address",
          "name": "childChainManager",
          "type": "address"
        }
      ],
      "stateMutability": "nonpayable",
      "type": "constructor"
    },
    {
      "anonymous": false,
      "inputs": [
        {
          "indexed": true,
          "internalType": "address",
          "name": "owner",
          "type": "address"
        },
        {
          "indexed": true,
          "internalType": "address",
          "name": "approved",
          "type": "address"
        },
        {
          "indexed": true,
          "internalType": "uint256",
          "name": "tokenId",
          "type": "uint256"
        }
      ],
      "name": "Approval",
      "type": "event"
    },
    {
      "anonymous": false,
      "inputs": [
        {
          "indexed": true,
          "internalType": "address",
          "name": "owner",
          "type": "address"
        },
        {
          "indexed": true,
          "internalType": "address",
          "name": "operator",
          "type": "address"
        },
        {
          "indexed": false,
          "internalType": "bool",
          "name": "approved",
          "type": "bool"
        }
      ],
      "name": "ApprovalForAll",
      "type": "event"
    },
    {
      "anonymous": false,
      "inputs": [
        {
          "indexed": false,
          "internalType": "address",
          "name": "userAddress",
          "type": "address"
        },
        {
          "indexed": false,
          "internalType": "address payable",
          "name": "relayerAddress",
          "type": "address"
        },
        {
          "indexed": false,
          "internalType": "bytes",
          "name": "functionSignature",
          "type": "bytes"
        }
      ],
      "name": "MetaTransactionExecuted",
      "type": "event"
    },
    {
      "anonymous": false,
      "inputs": [
        {
          "indexed": true,
          "internalType": "bytes32",
          "name": "role",
          "type": "bytes32"
        },
        {
          "indexed": true,
          "internalType": "bytes32",
          "name": "previousAdminRole",
          "type": "bytes32"
        },
        {
          "indexed": true,
          "internalType": "bytes32",
          "name": "newAdminRole",
          "type": "bytes32"
        }
      ],
      "name": "RoleAdminChanged",
      "type": "event"
    },
    {
      "anonymous": false,
      "inputs": [
        {
          "indexed": true,
          "internalType": "bytes32",
          "name": "role",
          "type": "bytes32"
        },
        {
          "indexed": true,
          "internalType": "address",
          "name": "account",
          "type": "address"
        },
        {
          "indexed": true,
          "internalType": "address",
          "name": "sender",
          "type": "address"
        }
      ],
      "name": "RoleGranted",
      "type": "event"
    },
    {
      "anonymous": false,
      "inputs": [
        {
          "indexed": true,
          "internalType": "bytes32",
          "name": "role",
          "type": "bytes32"
        },
        {
          "indexed": true,
          "internalType": "address",
          "name": "account",
          "type": "address"
        },
        {
          "indexed": true,
          "internalType": "address",
          "name": "sender",
          "type": "address"
        }
      ],
      "name": "RoleRevoked",
      "type": "event"
    },
    {
      "anonymous": false,
      "inputs": [
        {
          "indexed": true,
          "internalType": "address",
          "name": "from",
          "type": "address"
        },
        {
          "indexed": true,
          "internalType": "address",
          "name": "to",
          "type": "address"
        },
        {
          "indexed": true,
          "internalType": "uint256",
          "name": "tokenId",
          "type": "uint256"
        }
      ],
      "name": "Transfer",
      "type": "event"
    },
    {
      "anonymous": false,
      "inputs": [
        {
          "indexed": true,
          "internalType": "address",
          "name": "from",
          "type": "address"
        },
        {
          "indexed": true,
          "internalType": "address",
          "name": "to",
          "type": "address"
        },
        {
          "indexed": true,
          "internalType": "uint256",
          "name": "tokenId",
          "type": "uint256"
        },
        {
          "indexed": false,
          "internalType": "bytes",
          "name": "metaData",
          "type": "bytes"
        }
      ],
      "name": "TransferWithMetadata",
      "type": "event"
    },
    {
      "anonymous": false,
      "inputs": [
        {
          "indexed": true,
          "internalType": "address",
          "name": "user",
          "type": "address"
        },
        {
          "indexed": false,
          "internalType": "uint256[]",
          "name": "tokenIds",
          "type": "uint256[]"
        }
      ],
      "name": "WithdrawnBatch",
      "type": "event"
    },
    {
      "inputs": [],
      "name": "BATCH_LIMIT",
      "outputs": [
        {
          "internalType": "uint256",
          "name": "",
          "type": "uint256"
        }
      ],
      "stateMutability": "view",
      "type": "function"
    },
    {
      "inputs": [],
      "name": "DEFAULT_ADMIN_ROLE",
      "outputs": [
        {
          "internalType": "bytes32",
          "name": "",
          "type": "bytes32"
        }
      ],
      "stateMutability": "view",
      "type": "function"
    },
    {
      "inputs": [],
      "name": "DEPOSITOR_ROLE",
      "outputs": [
        {
          "internalType": "bytes32",
          "name": "",
          "type": "bytes32"
        }
      ],
      "stateMutability": "view",
      "type": "function"
    },
    {
      "inputs": [],
      "name": "ERC712_VERSION",
      "outputs": [
        {
          "internalType": "string",
          "name": "",
          "type": "string"
        }
      ],
      "stateMutability": "view",
      "type": "function"
    },
    {
      "inputs": [
        {
          "internalType": "address",
          "name": "to",
          "type": "address"
        },
        {
          "internalType": "uint256",
          "name": "tokenId",
          "type": "uint256"
        }
      ],
      "name": "approve",
      "outputs": [],
      "stateMutability": "nonpayable",
      "type": "function"
    },
    {
      "inputs": [
        {
          "internalType": "address",
          "name": "owner",
          "type": "address"
        }
      ],
      "name": "balanceOf",
      "outputs": [
        {
          "internalType": "uint256",
          "name": "",
          "type": "uint256"
        }
      ],
      "stateMutability": "view",
      "type": "function"
    },
    {
      "inputs": [],
      "name": "baseURI",
      "outputs": [
        {
          "internalType": "string",
          "name": "",
          "type": "string"
        }
      ],
      "stateMutability": "view",
      "type": "function"
    },
    {
      "inputs": [
        {
          "internalType": "address",
          "name": "user",
          "type": "address"
        },
        {
          "internalType": "bytes",
          "name": "depositData",
          "type": "bytes"
        }
      ],
      "name": "deposit",
      "outputs": [],
      "stateMutability": "nonpayable",
      "type": "function"
    },
    {
      "inputs": [
        {
          "internalType": "uint256",
          "name": "tokenId",
          "type": "uint256"
        }
      ],
      "name": "encodeTokenMetadata",
      "outputs": [
        {
          "internalType": "bytes",
          "name": "",
          "type": "bytes"
        }
      ],
      "stateMutability": "view",
      "type": "function"
    },
    {
      "inputs": [
        {
          "internalType": "address",
          "name": "userAddress",
          "type": "address"
        },
        {
          "internalType": "bytes",
          "name": "functionSignature",
          "type": "bytes"
        },
        {
          "internalType": "bytes32",
          "name": "sigR",
          "type": "bytes32"
        },
        {
          "internalType": "bytes32",
          "name": "sigS",
          "type": "bytes32"
        },
        {
          "internalType": "uint8",
          "name": "sigV",
          "type": "uint8"
        }
      ],
      "name": "executeMetaTransaction",
      "outputs": [
        {
          "internalType": "bytes",
          "name": "",
          "type": "bytes"
        }
      ],
      "stateMutability": "payable",
      "type": "function"
    },
    {
      "inputs": [
        {
          "internalType": "uint256",
          "name": "tokenId",
          "type": "uint256"
        }
      ],
      "name": "getApproved",
      "outputs": [
        {
          "internalType": "address",
          "name": "",
          "type": "address"
        }
      ],
      "stateMutability": "view",
      "type": "function"
    },
    {
      "inputs": [],
      "name": "getChainId",
      "outputs": [
        {
          "internalType": "uint256",
          "name": "",
          "type": "uint256"
        }
      ],
      "stateMutability": "view",
      "type": "function"
    },
    {
      "inputs": [],
      "name": "getDomainSeperator",
      "outputs": [
        {
          "internalType": "bytes32",
          "name": "",
          "type": "bytes32"
        }
      ],
      "stateMutability": "view",
      "type": "function"
    },
    {
      "inputs": [
        {
          "internalType": "address",
          "name": "user",
          "type": "address"
        }
      ],
      "name": "getNonce",
      "outputs": [
        {
          "internalType": "uint256",
          "name": "nonce",
          "type": "uint256"
        }
      ],
      "stateMutability": "view",
      "type": "function"
    },
    {
      "inputs": [
        {
          "internalType": "bytes32",
          "name": "role",
          "type": "bytes32"
        }
      ],
      "name": "getRoleAdmin",
      "outputs": [
        {
          "internalType": "bytes32",
          "name": "",
          "type": "bytes32"
        }
      ],
      "stateMutability": "view",
      "type": "function"
    },
    {
      "inputs": [
        {
          "internalType": "bytes32",
          "name": "role",
          "type": "bytes32"
        },
        {
          "internalType": "uint256",
          "name": "index",
          "type": "uint256"
        }
      ],
      "name": "getRoleMember",
      "outputs": [
        {
          "internalType": "address",
          "name": "",
          "type": "address"
        }
      ],
      "stateMutability": "view",
      "type": "function"
    },
    {
      "inputs": [
        {
          "internalType": "bytes32",
          "name": "role",
          "type": "bytes32"
        }
      ],
      "name": "getRoleMemberCount",
      "outputs": [
        {
          "internalType": "uint256",
          "name": "",
          "type": "uint256"
        }
      ],
      "stateMutability": "view",
      "type": "function"
    },
    {
      "inputs": [
        {
          "internalType": "bytes32",
          "name": "role",
          "type": "bytes32"
        },
        {
          "internalType": "address",
          "name": "account",
          "type": "address"
        }
      ],
      "name": "grantRole",
      "outputs": [],
      "stateMutability": "nonpayable",
      "type": "function"
    },
    {
      "inputs": [
        {
          "internalType": "bytes32",
          "name": "role",
          "type": "bytes32"
        },
        {
          "internalType": "address",
          "name": "account",
          "type": "address"
        }
      ],
      "name": "hasRole",
      "outputs": [
        {
          "internalType": "bool",
          "name": "",
          "type": "bool"
        }
      ],
      "stateMutability": "view",
      "type": "function"
    },
    {
      "inputs": [
        {
          "internalType": "address",
          "name": "owner",
          "type": "address"
        },
        {
          "internalType": "address",
          "name": "operator",
          "type": "address"
        }
      ],
      "name": "isApprovedForAll",
      "outputs": [
        {
          "internalType": "bool",
          "name": "",
          "type": "bool"
        }
      ],
      "stateMutability": "view",
      "type": "function"
    },
    {
      "inputs": [
        {
          "internalType": "address",
          "name": "user",
          "type": "address"
        },
        {
          "internalType": "uint256",
          "name": "tokenId",
          "type": "uint256"
        }
      ],
      "name": "mint",
      "outputs": [],
      "stateMutability": "nonpayable",
      "type": "function"
    },
    {
      "inputs": [],
      "name": "name",
      "outputs": [
        {
          "internalType": "string",
          "name": "",
          "type": "string"
        }
      ],
      "stateMutability": "view",
      "type": "function"
    },
    {
      "inputs": [
        {
          "internalType": "uint256",
          "name": "tokenId",
          "type": "uint256"
        }
      ],
      "name": "ownerOf",
      "outputs": [
        {
          "internalType": "address",
          "name": "",
          "type": "address"
        }
      ],
      "stateMutability": "view",
      "type": "function"
    },
    {
      "inputs": [
        {
          "internalType": "bytes32",
          "name": "role",
          "type": "bytes32"
        },
        {
          "internalType": "address",
          "name": "account",
          "type": "address"
        }
      ],
      "name": "renounceRole",
      "outputs": [],
      "stateMutability": "nonpayable",
      "type": "function"
    },
    {
      "inputs": [
        {
          "internalType": "bytes32",
          "name": "role",
          "type": "bytes32"
        },
        {
          "internalType": "address",
          "name": "account",
          "type": "address"
        }
      ],
      "name": "revokeRole",
      "outputs": [],
      "stateMutability": "nonpayable",
      "type": "function"
    },
    {
      "inputs": [
        {
          "internalType": "address",
          "name": "from",
          "type": "address"
        },
        {
          "internalType": "address",
          "name": "to",
          "type": "address"
        },
        {
          "internalType": "uint256",
          "name": "tokenId",
          "type": "uint256"
        }
      ],
      "name": "safeTransferFrom",
      "outputs": [],
      "stateMutability": "nonpayable",
      "type": "function"
    },
    {
      "inputs": [
        {
          "internalType": "address",
          "name": "from",
          "type": "address"
        },
        {
          "internalType": "address",
          "name": "to",
          "type": "address"
        },
        {
          "internalType": "uint256",
          "name": "tokenId",
          "type": "uint256"
        },
        {
          "internalType": "bytes",
          "name": "_data",
          "type": "bytes"
        }
      ],
      "name": "safeTransferFrom",
      "outputs": [],
      "stateMutability": "nonpayable",
      "type": "function"
    },
    {
      "inputs": [
        {
          "internalType": "address",
          "name": "operator",
          "type": "address"
        },
        {
          "internalType": "bool",
          "name": "approved",
          "type": "bool"
        }
      ],
      "name": "setApprovalForAll",
      "outputs": [],
      "stateMutability": "nonpayable",
      "type": "function"
    },
    {
      "inputs": [
        {
          "internalType": "bytes4",
          "name": "interfaceId",
          "type": "bytes4"
        }
      ],
      "name": "supportsInterface",
      "outputs": [
        {
          "internalType": "bool",
          "name": "",
          "type": "bool"
        }
      ],
      "stateMutability": "view",
      "type": "function"
    },
    {
      "inputs": [],
      "name": "symbol",
      "outputs": [
        {
          "internalType": "string",
          "name": "",
          "type": "string"
        }
      ],
      "stateMutability": "view",
      "type": "function"
    },
    {
      "inputs": [
        {
          "internalType": "uint256",
          "name": "index",
          "type": "uint256"
        }
      ],
      "name": "tokenByIndex",
      "outputs": [
        {
          "internalType": "uint256",
          "name": "",
          "type": "uint256"
        }
      ],
      "stateMutability": "view",
      "type": "function"
    },
    {
      "inputs": [
        {
          "internalType": "address",
          "name": "owner",
          "type": "address"
        },
        {
          "internalType": "uint256",
          "name": "index",
          "type": "uint256"
        }
      ],
      "name": "tokenOfOwnerByIndex",
      "outputs": [
        {
          "internalType": "uint256",
          "name": "",
          "type": "uint256"
        }
      ],
      "stateMutability": "view",
      "type": "function"
    },
    {
      "inputs": [
        {
          "internalType": "uint256",
          "name": "tokenId",
          "type": "uint256"
        }
      ],
      "name": "tokenURI",
      "outputs": [
        {
          "internalType": "string",
          "name": "",
          "type": "string"
        }
      ],
      "stateMutability": "view",
      "type": "function"
    },
    {
      "inputs": [],
      "name": "totalSupply",
      "outputs": [
        {
          "internalType": "uint256",
          "name": "",
          "type": "uint256"
        }
      ],
      "stateMutability": "view",
      "type": "function"
    },
    {
      "inputs": [
        {
          "internalType": "address",
          "name": "from",
          "type": "address"
        },
        {
          "internalType": "address",
          "name": "to",
          "type": "address"
        },
        {
          "internalType": "uint256",
          "name": "tokenId",
          "type": "uint256"
        }
      ],
      "name": "transferFrom",
      "outputs": [],
      "stateMutability": "nonpayable",
      "type": "function"
    },
    {
      "inputs": [
        {
          "internalType": "uint256",
          "name": "tokenId",
          "type": "uint256"
        }
      ],
      "name": "withdraw",
      "outputs": [],
      "stateMutability": "nonpayable",
      "type": "function"
    },
    {
      "inputs": [
        {
          "internalType": "uint256[]",
          "name": "tokenIds",
          "type": "uint256[]"
        }
      ],
      "name": "withdrawBatch",
      "outputs": [],
      "stateMutability": "nonpayable",
      "type": "function"
    },
    {
      "inputs": [
        {
          "internalType": "uint256",
          "name": "tokenId",
          "type": "uint256"
        }
      ],
      "name": "withdrawWithMetadata",
      "outputs": [],
      "stateMutability": "nonpayable",
      "type": "function"
    },
    {
      "inputs": [
        {
          "internalType": "uint256",
          "name": "",
          "type": "uint256"
        }
      ],
      "name": "withdrawnTokens",
      "outputs": [
        {
          "internalType": "bool",
          "name": "",
          "type": "bool"
        }
      ],
      "stateMutability": "view",
      "type": "function"
    }
  ],
  "bytecode": "0x60806040526000600d60006101000a81548160ff0219169083151502179055503480156200002c57600080fd5b506040516200626d3803806200626d833981810160405281019062000052919062000764565b82826200006c6301ffc9a760e01b6200017a60201b60201c565b8160019080519060200190620000849291906200062b565b5080600290805190602001906200009d9291906200062b565b50620000b66380ac58cd60e01b6200017a60201b60201c565b620000ce635b5e139f60e01b6200017a60201b60201c565b620000e663780e9d6360e01b6200017a60201b60201c565b50506200012e6040518060400160405280600781526020017f74657374334b4f000000000000000000000000000000000000000000000000008152506200025260201b60201c565b620001607f8f4f2da22e8ac8f11e15f9fc141cddbb5deea8800186560abb6e68c5496619a9826200028f60201b60201c565b6200017183620002a560201b60201c565b50505062000beb565b63ffffffff60e01b817bffffffffffffffffffffffffffffffffffffffffffffffffffffffff19161415620001e6576040517f08c379a0000000000000000000000000000000000000000000000000000000008152600401620001dd906200093d565b60405180910390fd5b6001600080837bffffffffffffffffffffffffffffffffffffffffffffffffffffffff19167bffffffffffffffffffffffffffffffffffffffffffffffffffffffff1916815260200190815260200160002060006101000a81548160ff02191690831515021790555050565b80604051602001620002659190620008ba565b604051602081830303815290604052600c90805190602001906200028b9291906200062b565b5050565b620002a182826200032760201b60201c565b5050565b600d60009054906101000a900460ff1615620002f8576040517f08c379a0000000000000000000000000000000000000000000000000000000008152600401620002ef906200095f565b60405180910390fd5b6200030981620003cb60201b60201c565b6001600d60006101000a81548160ff02191690831515021790555050565b6200035681600b60008581526020019081526020016000206000016200047a60201b62001fde1790919060201c565b15620003c7576200036c620004b260201b60201c565b73ffffffffffffffffffffffffffffffffffffffff168173ffffffffffffffffffffffffffffffffffffffff16837f2f8788117e7eff1d82e926ec794901d17c78024a50270940304540a733656f0d60405160405180910390a45b5050565b6040518060800160405280604f81526020016200621e604f91398051906020012081805190602001206040518060400160405280600181526020017f3100000000000000000000000000000000000000000000000000000000000000815250805190602001203062000442620004ce60201b60201c565b60001b6040516020016200045b959493929190620008e0565b60405160208183030381529060405280519060200120600e8190555050565b6000620004aa836000018373ffffffffffffffffffffffffffffffffffffffff1660001b620004db60201b60201c565b905092915050565b6000620004c96200055560201b6200200e1760201c565b905090565b6000804690508091505090565b6000620004ef83836200060860201b60201c565b6200054a5782600001829080600181540180825580915050600190039060005260206000200160009091909190915055826000018054905083600101600084815260200190815260200160002081905550600190506200054f565b600090505b92915050565b60003073ffffffffffffffffffffffffffffffffffffffff163373ffffffffffffffffffffffffffffffffffffffff1614156200060157600080368080601f016020809104026020016040519081016040528093929190818152602001838380828437600081840152601f19601f820116905080830192505050505050509050600080369050905073ffffffffffffffffffffffffffffffffffffffff81830151169250505062000605565b3390505b90565b600080836001016000848152602001908152602001600020541415905092915050565b828054620006399062000a7b565b90600052602060002090601f0160209004810192826200065d5760008555620006a9565b82601f106200067857805160ff1916838001178555620006a9565b82800160010185558215620006a9579182015b82811115620006a85782518255916020019190600101906200068b565b5b509050620006b89190620006bc565b5090565b5b80821115620006d7576000816000905550600101620006bd565b5090565b6000620006f2620006ec84620009aa565b62000981565b9050828152602081018484840111156200070b57600080fd5b6200071884828562000a45565b509392505050565b600081519050620007318162000bd1565b92915050565b600082601f8301126200074957600080fd5b81516200075b848260208601620006db565b91505092915050565b6000806000606084860312156200077a57600080fd5b600084015167ffffffffffffffff8111156200079557600080fd5b620007a38682870162000737565b935050602084015167ffffffffffffffff811115620007c157600080fd5b620007cf8682870162000737565b9250506040620007e28682870162000720565b9150509250925092565b620007f78162000a07565b82525050565b620008088162000a1b565b82525050565b60006200081b82620009e0565b620008278185620009fc565b93506200083981856020860162000a45565b80840191505092915050565b600062000854601a83620009fc565b9150620008618262000b56565b601a82019050919050565b60006200087b601c83620009eb565b9150620008888262000b7f565b602082019050919050565b6000620008a2600e83620009eb565b9150620008af8262000ba8565b602082019050919050565b6000620008c882846200080e565b9150620008d58262000845565b915081905092915050565b600060a082019050620008f76000830188620007fd565b620009066020830187620007fd565b620009156040830186620007fd565b620009246060830185620007ec565b620009336080830184620007fd565b9695505050505050565b6000602082019050818103600083015262000958816200086c565b9050919050565b600060208201905081810360008301526200097a8162000893565b9050919050565b60006200098d620009a0565b90506200099b828262000ab1565b919050565b6000604051905090565b600067ffffffffffffffff821115620009c857620009c762000b16565b5b620009d38262000b45565b9050602081019050919050565b600081519050919050565b600082825260208201905092915050565b600081905092915050565b600062000a148262000a25565b9050919050565b6000819050919050565b600073ffffffffffffffffffffffffffffffffffffffff82169050919050565b60005b8381101562000a6557808201518184015260208101905062000a48565b8381111562000a75576000848401525b50505050565b6000600282049050600182168062000a9457607f821691505b6020821081141562000aab5762000aaa62000ae7565b5b50919050565b62000abc8262000b45565b810181811067ffffffffffffffff8211171562000ade5762000add62000b16565b5b80604052505050565b7f4e487b7100000000000000000000000000000000000000000000000000000000600052602260045260246000fd5b7f4e487b7100000000000000000000000000000000000000000000000000000000600052604160045260246000fd5b6000601f19601f8301169050919050565b7f3a20494e53554646494349454e545f5045524d495353494f4e53000000000000600082015250565b7f4552433136353a20696e76616c696420696e7465726661636520696400000000600082015250565b7f616c726561647920696e69746564000000000000000000000000000000000000600082015250565b62000bdc8162000a07565b811462000be857600080fd5b50565b6156238062000bfb6000396000f3fe6080604052600436106102305760003560e01c806342842e0e1161012e578063a217fddf116100ab578063c87b56dd1161006f578063c87b56dd146108b2578063ca15c873146108ef578063cf2c52cb1461092c578063d547741f14610955578063e985e9c51461097e57610230565b8063a217fddf146107e1578063a22cb4651461080c578063a3b0b5a314610835578063a5e584dc14610860578063b88d4fde1461088957610230565b80639010d07c116100f25780639010d07c146106e857806391d14854146107255780639559c0bd1461076257806395d89b411461078d5780639c8d4156146107b857610230565b806342842e0e146105dd5780634f6ccce7146106065780636352211e146106435780636c0360eb1461068057806370a08231146106ab57610230565b806320379ee5116101bc5780632f2ff15d116101805780632f2ff15d146104fa5780632f745c59146105235780633408e4701461056057806336568abe1461058b57806340c10f19146105b457610230565b806320379ee51461040357806323b872dd1461042e578063248a9ca3146104575780632d0335ab146104945780632e1a7d4d146104d157610230565b8063095ea7b311610203578063095ea7b3146103175780630c53c51c146103405780630f7e5970146103705780631653c39a1461039b57806318160ddd146103d857610230565b806301ffc9a71461023557806306fdde031461027257806307a974fc1461029d578063081812fc146102da575b600080fd5b34801561024157600080fd5b5061025c60048036038101906102579190613c42565b6109bb565b60405161026991906144df565b60405180910390f35b34801561027e57600080fd5b50610287610a22565b60405161029491906145c1565b60405180910390f35b3480156102a957600080fd5b506102c460048036038101906102bf9190613cd5565b610ab4565b6040516102d191906144df565b60405180910390f35b3480156102e657600080fd5b5061030160048036038101906102fc9190613cd5565b610ad4565b60405161030e9190614416565b60405180910390f35b34801561032357600080fd5b5061033e60048036038101906103399190613adf565b610b59565b005b61035a60048036038101906103559190613a50565b610c71565b604051610367919061459f565b60405180910390f35b34801561037c57600080fd5b50610385610ee3565b60405161039291906145c1565b60405180910390f35b3480156103a757600080fd5b506103c260048036038101906103bd9190613cd5565b610f1c565b6040516103cf919061459f565b60405180910390f35b3480156103e457600080fd5b506103ed610f4d565b6040516103fa9190614905565b60405180910390f35b34801561040f57600080fd5b50610418610f5e565b60405161042591906144fa565b60405180910390f35b34801561043a57600080fd5b50610455600480360381019061045091906138f2565b610f68565b005b34801561046357600080fd5b5061047e60048036038101906104799190613ba1565b610fc8565b60405161048b91906144fa565b60405180910390f35b3480156104a057600080fd5b506104bb60048036038101906104b6919061388d565b610fe8565b6040516104c89190614905565b60405180910390f35b3480156104dd57600080fd5b506104f860048036038101906104f39190613cd5565b611031565b005b34801561050657600080fd5b50610521600480360381019061051c9190613bca565b6110e6565b005b34801561052f57600080fd5b5061054a60048036038101906105459190613adf565b61115a565b6040516105579190614905565b60405180910390f35b34801561056c57600080fd5b506105756111b5565b6040516105829190614905565b60405180910390f35b34801561059757600080fd5b506105b260048036038101906105ad9190613bca565b6111c2565b005b3480156105c057600080fd5b506105db60048036038101906105d69190613adf565b611245565b005b3480156105e957600080fd5b5061060460048036038101906105ff91906138f2565b61130e565b005b34801561061257600080fd5b5061062d60048036038101906106289190613cd5565b61132e565b60405161063a9190614905565b60405180910390f35b34801561064f57600080fd5b5061066a60048036038101906106659190613cd5565b611351565b6040516106779190614416565b60405180910390f35b34801561068c57600080fd5b50610695611388565b6040516106a291906145c1565b60405180910390f35b3480156106b757600080fd5b506106d260048036038101906106cd919061388d565b61141a565b6040516106df9190614905565b60405180910390f35b3480156106f457600080fd5b5061070f600480360381019061070a9190613c06565b6114d9565b60405161071c9190614416565b60405180910390f35b34801561073157600080fd5b5061074c60048036038101906107479190613bca565b61150b565b60405161075991906144df565b60405180910390f35b34801561076e57600080fd5b5061077761153d565b6040516107849190614905565b60405180910390f35b34801561079957600080fd5b506107a2611542565b6040516107af91906145c1565b60405180910390f35b3480156107c457600080fd5b506107df60048036038101906107da9190613b1b565b6115d4565b005b3480156107ed57600080fd5b506107f66117b5565b60405161080391906144fa565b60405180910390f35b34801561081857600080fd5b50610833600480360381019061082e91906139bc565b6117bc565b005b34801561084157600080fd5b5061084a61193d565b60405161085791906144fa565b60405180910390f35b34801561086c57600080fd5b5061088760048036038101906108829190613cd5565b611961565b005b34801561089557600080fd5b506108b060048036038101906108ab9190613941565b611b12565b005b3480156108be57600080fd5b506108d960048036038101906108d49190613cd5565b611b74565b6040516108e691906145c1565b60405180910390f35b3480156108fb57600080fd5b5061091660048036038101906109119190613ba1565b611ce7565b6040516109239190614905565b60405180910390f35b34801561093857600080fd5b50610953600480360381019061094e91906139f8565b611d0e565b005b34801561096157600080fd5b5061097c60048036038101906109779190613bca565b611ed6565b005b34801561098a57600080fd5b506109a560048036038101906109a091906138b6565b611f4a565b6040516109b291906144df565b60405180910390f35b6000806000837bffffffffffffffffffffffffffffffffffffffffffffffffffffffff19167bffffffffffffffffffffffffffffffffffffffffffffffffffffffff1916815260200190815260200160002060009054906101000a900460ff169050919050565b606060018054610a3190614bda565b80601f0160208091040260200160405190810160405280929190818152602001828054610a5d90614bda565b8015610aaa5780601f10610a7f57610100808354040283529160200191610aaa565b820191906000526020600020905b815481529060010190602001808311610a8d57829003601f168201915b5050505050905090565b60106020528060005260406000206000915054906101000a900460ff1681565b6000610adf826120bf565b610b1e576040517f08c379a0000000000000000000000000000000000000000000000000000000008152600401610b1590614805565b60405180910390fd5b6007600083815260200190815260200160002060009054906101000a900473ffffffffffffffffffffffffffffffffffffffff169050919050565b6000610b6482611351565b90508073ffffffffffffffffffffffffffffffffffffffff168373ffffffffffffffffffffffffffffffffffffffff161415610bd5576040517f08c379a0000000000000000000000000000000000000000000000000000000008152600401610bcc90614885565b60405180910390fd5b8073ffffffffffffffffffffffffffffffffffffffff16610bf46120dc565b73ffffffffffffffffffffffffffffffffffffffff161480610c235750610c2281610c1d6120dc565b611f4a565b5b610c62576040517f08c379a0000000000000000000000000000000000000000000000000000000008152600401610c5990614765565b60405180910390fd5b610c6c83836120eb565b505050565b606060006040518060600160405280600f60008a73ffffffffffffffffffffffffffffffffffffffff1673ffffffffffffffffffffffffffffffffffffffff1681526020019081526020016000205481526020018873ffffffffffffffffffffffffffffffffffffffff168152602001878152509050610cf487828787876121a4565b610d33576040517f08c379a0000000000000000000000000000000000000000000000000000000008152600401610d2a90614845565b60405180910390fd5b610d866001600f60008a73ffffffffffffffffffffffffffffffffffffffff1673ffffffffffffffffffffffffffffffffffffffff168152602001908152602001600020546122ad90919063ffffffff16565b600f60008973ffffffffffffffffffffffffffffffffffffffff1673ffffffffffffffffffffffffffffffffffffffff168152602001908152602001600020819055507f5845892132946850460bff5a0083f71031bc5bf9aadcd40f1de79423eac9b10b873388604051610dfc9392919061447d565b60405180910390a16000803073ffffffffffffffffffffffffffffffffffffffff16888a604051602001610e3192919061436d565b604051602081830303815290604052604051610e4d9190614356565b6000604051808303816000865af19150503d8060008114610e8a576040519150601f19603f3d011682016040523d82523d6000602084013e610e8f565b606091505b509150915081610ed4576040517f08c379a0000000000000000000000000000000000000000000000000000000008152600401610ecb90614665565b60405180910390fd5b80935050505095945050505050565b6040518060400160405280600181526020017f310000000000000000000000000000000000000000000000000000000000000081525081565b6060610f2782611b74565b604051602001610f3791906145c1565b6040516020818303038152906040529050919050565b6000610f59600461230b565b905090565b6000600e54905090565b610f79610f736120dc565b82612320565b610fb8576040517f08c379a0000000000000000000000000000000000000000000000000000000008152600401610faf906148a5565b60405180910390fd5b610fc38383836123fe565b505050565b6000600b6000838152602001908152602001600020600201549050919050565b6000600f60008373ffffffffffffffffffffffffffffffffffffffff1673ffffffffffffffffffffffffffffffffffffffff168152602001908152602001600020549050919050565b61103a81611351565b73ffffffffffffffffffffffffffffffffffffffff166110586120dc565b73ffffffffffffffffffffffffffffffffffffffff16146110ae576040517f08c379a00000000000000000000000000000000000000000000000000000000081526004016110a590614785565b60405180910390fd5b60016010600083815260200190815260200160002060006101000a81548160ff0219169083151502179055506110e381612615565b50565b61110d600b6000848152602001908152602001600020600201546111086120dc565b61150b565b61114c576040517f08c379a000000000000000000000000000000000000000000000000000000000815260040161114390614605565b60405180910390fd5b6111568282612747565b5050565b60006111ad82600360008673ffffffffffffffffffffffffffffffffffffffff1673ffffffffffffffffffffffffffffffffffffffff1681526020019081526020016000206127db90919063ffffffff16565b905092915050565b6000804690508091505090565b6111ca6120dc565b73ffffffffffffffffffffffffffffffffffffffff168173ffffffffffffffffffffffffffffffffffffffff1614611237576040517f08c379a000000000000000000000000000000000000000000000000000000000815260040161122e906148e5565b60405180910390fd5b61124182826127f5565b5050565b6000801b61125a816112556120dc565b61150b565b600c9061129d576040517f08c379a000000000000000000000000000000000000000000000000000000000815260040161129491906145e3565b60405180910390fd5b506010600083815260200190815260200160002060009054906101000a900460ff16156112ff576040517f08c379a00000000000000000000000000000000000000000000000000000000081526004016112f690614645565b60405180910390fd5b6113098383612889565b505050565b61132983838360405180602001604052806000815250611b12565b505050565b600080611345836004612a1790919063ffffffff16565b50905080915050919050565b6000611381826040518060600160405280602981526020016155c5602991396004612a439092919063ffffffff16565b9050919050565b6060600a805461139790614bda565b80601f01602080910402602001604051908101604052809291908181526020018280546113c390614bda565b80156114105780601f106113e557610100808354040283529160200191611410565b820191906000526020600020905b8154815290600101906020018083116113f357829003601f168201915b5050505050905090565b60008073ffffffffffffffffffffffffffffffffffffffff168273ffffffffffffffffffffffffffffffffffffffff16141561148b576040517f08c379a0000000000000000000000000000000000000000000000000000000008152600401611482906147a5565b60405180910390fd5b6114d2600360008473ffffffffffffffffffffffffffffffffffffffff1673ffffffffffffffffffffffffffffffffffffffff168152602001908152602001600020612a62565b9050919050565b600061150382600b6000868152602001908152602001600020600001612a7790919063ffffffff16565b905092915050565b600061153582600b6000868152602001908152602001600020600001612a9190919063ffffffff16565b905092915050565b601481565b60606002805461155190614bda565b80601f016020809104026020016040519081016040528092919081815260200182805461157d90614bda565b80156115ca5780601f1061159f576101008083540402835291602001916115ca565b820191906000526020600020905b8154815290600101906020018083116115ad57829003601f168201915b5050505050905090565b60008282905090506014811115611620576040517f08c379a0000000000000000000000000000000000000000000000000000000008152600401611617906147c5565b60405180910390fd5b60005b81811015611758576000848483818110611666577f4e487b7100000000000000000000000000000000000000000000000000000000600052603260045260246000fd5b90506020020135905061167881611351565b73ffffffffffffffffffffffffffffffffffffffff166116966120dc565b73ffffffffffffffffffffffffffffffffffffffff1614816040516020016116be91906143f0565b6040516020818303038152906040529061170e576040517f08c379a000000000000000000000000000000000000000000000000000000000815260040161170591906145c1565b60405180910390fd5b5060016010600083815260200190815260200160002060006101000a81548160ff02191690831515021790555061174481612615565b50808061175090614c3d565b915050611623565b506117616120dc565b73ffffffffffffffffffffffffffffffffffffffff167ff871896b17e9cb7a64941c62c188a4f5c621b86800e3d15452ece01ce56073df84846040516117a89291906144bb565b60405180910390a2505050565b6000801b81565b6117c46120dc565b73ffffffffffffffffffffffffffffffffffffffff168273ffffffffffffffffffffffffffffffffffffffff161415611832576040517f08c379a0000000000000000000000000000000000000000000000000000000008152600401611829906146e5565b60405180910390fd5b806008600061183f6120dc565b73ffffffffffffffffffffffffffffffffffffffff1673ffffffffffffffffffffffffffffffffffffffff16815260200190815260200160002060008473ffffffffffffffffffffffffffffffffffffffff1673ffffffffffffffffffffffffffffffffffffffff16815260200190815260200160002060006101000a81548160ff0219169083151502179055508173ffffffffffffffffffffffffffffffffffffffff166118ec6120dc565b73ffffffffffffffffffffffffffffffffffffffff167f17307eab39ab6107e8899845ad3d59bd9653f200f220920489ca2b5937696c318360405161193191906144df565b60405180910390a35050565b7f8f4f2da22e8ac8f11e15f9fc141cddbb5deea8800186560abb6e68c5496619a981565b61196a81611351565b73ffffffffffffffffffffffffffffffffffffffff166119886120dc565b73ffffffffffffffffffffffffffffffffffffffff16146119de576040517f08c379a00000000000000000000000000000000000000000000000000000000081526004016119d590614785565b60405180910390fd5b60016010600083815260200190815260200160002060006101000a81548160ff02191690831515021790555080600073ffffffffffffffffffffffffffffffffffffffff16611a2c83611351565b73ffffffffffffffffffffffffffffffffffffffff167ff94915c6d1fd521cee85359239227480c7e8776d7caf1fc3bacad5c269b66a143073ffffffffffffffffffffffffffffffffffffffff16631653c39a866040518263ffffffff1660e01b8152600401611a9c9190614905565b60006040518083038186803b158015611ab457600080fd5b505afa158015611ac8573d6000803e3d6000fd5b505050506040513d6000823e3d601f19601f82011682018060405250810190611af19190613c94565b604051611afe919061459f565b60405180910390a4611b0f81612615565b50565b611b23611b1d6120dc565b83612320565b611b62576040517f08c379a0000000000000000000000000000000000000000000000000000000008152600401611b59906148a5565b60405180910390fd5b611b6e84848484612ac1565b50505050565b6060611b7f826120bf565b611bbe576040517f08c379a0000000000000000000000000000000000000000000000000000000008152600401611bb590614865565b60405180910390fd5b6000600960008481526020019081526020016000208054611bde90614bda565b80601f0160208091040260200160405190810160405280929190818152602001828054611c0a90614bda565b8015611c575780601f10611c2c57610100808354040283529160200191611c57565b820191906000526020600020905b815481529060010190602001808311611c3a57829003601f168201915b505050505090506000600a8054611c6d90614bda565b90501415611c7e5780915050611ce2565b600081511115611cb357600a81604051602001611c9c929190614395565b604051602081830303815290604052915050611ce2565b600a611cbe84612b1d565b604051602001611ccf929190614395565b6040516020818303038152906040529150505b919050565b6000611d07600b6000848152602001908152602001600020600001612cdc565b9050919050565b7f8f4f2da22e8ac8f11e15f9fc141cddbb5deea8800186560abb6e68c5496619a9611d4081611d3b6120dc565b61150b565b600c90611d83576040517f08c379a0000000000000000000000000000000000000000000000000000000008152600401611d7a91906145e3565b60405180910390fd5b506020838390501415611ddf5760008383810190611da19190613cd5565b905060006010600083815260200190815260200160002060006101000a81548160ff021916908315150217905550611dd98582612889565b50611ed0565b60008383810190611df09190613b60565b905060008151905060005b81811015611ecc57600060106000858481518110611e42577f4e487b7100000000000000000000000000000000000000000000000000000000600052603260045260246000fd5b6020026020010151815260200190815260200160002060006101000a81548160ff021916908315150217905550611eb987848381518110611eac577f4e487b7100000000000000000000000000000000000000000000000000000000600052603260045260246000fd5b6020026020010151612889565b8080611ec490614c3d565b915050611dfb565b5050505b50505050565b611efd600b600084815260200190815260200160002060020154611ef86120dc565b61150b565b611f3c576040517f08c379a0000000000000000000000000000000000000000000000000000000008152600401611f3390614725565b60405180910390fd5b611f4682826127f5565b5050565b6000600860008473ffffffffffffffffffffffffffffffffffffffff1673ffffffffffffffffffffffffffffffffffffffff16815260200190815260200160002060008373ffffffffffffffffffffffffffffffffffffffff1673ffffffffffffffffffffffffffffffffffffffff16815260200190815260200160002060009054906101000a900460ff16905092915050565b6000612006836000018373ffffffffffffffffffffffffffffffffffffffff1660001b612cf1565b905092915050565b60003073ffffffffffffffffffffffffffffffffffffffff163373ffffffffffffffffffffffffffffffffffffffff1614156120b857600080368080601f016020809104026020016040519081016040528093929190818152602001838380828437600081840152601f19601f820116905080830192505050505050509050600080369050905073ffffffffffffffffffffffffffffffffffffffff8183015116925050506120bc565b3390505b90565b60006120d5826004612d6190919063ffffffff16565b9050919050565b60006120e661200e565b905090565b816007600083815260200190815260200160002060006101000a81548173ffffffffffffffffffffffffffffffffffffffff021916908373ffffffffffffffffffffffffffffffffffffffff160217905550808273ffffffffffffffffffffffffffffffffffffffff1661215e83611351565b73ffffffffffffffffffffffffffffffffffffffff167f8c5be1e5ebec7d5bd14f71427d1e84f3dd0314c0f7b2291e5b200ac8c7c3b92560405160405180910390a45050565b60008073ffffffffffffffffffffffffffffffffffffffff168673ffffffffffffffffffffffffffffffffffffffff161415612215576040517f08c379a000000000000000000000000000000000000000000000000000000000815260040161220c90614745565b60405180910390fd5b600161222861222387612d7b565b612de3565b83868660405160008152602001604052604051612248949392919061455a565b6020604051602081039080840390855afa15801561226a573d6000803e3d6000fd5b5050506020604051035173ffffffffffffffffffffffffffffffffffffffff168673ffffffffffffffffffffffffffffffffffffffff1614905095945050505050565b60008082846122bc9190614a16565b905083811015612301576040517f08c379a00000000000000000000000000000000000000000000000000000000081526004016122f8906146a5565b60405180910390fd5b8091505092915050565b600061231982600001612e1c565b9050919050565b600061232b826120bf565b61236a576040517f08c379a000000000000000000000000000000000000000000000000000000000815260040161236190614705565b60405180910390fd5b600061237583611351565b90508073ffffffffffffffffffffffffffffffffffffffff168473ffffffffffffffffffffffffffffffffffffffff1614806123e457508373ffffffffffffffffffffffffffffffffffffffff166123cc84610ad4565b73ffffffffffffffffffffffffffffffffffffffff16145b806123f557506123f48185611f4a565b5b91505092915050565b8273ffffffffffffffffffffffffffffffffffffffff1661241e82611351565b73ffffffffffffffffffffffffffffffffffffffff1614612474576040517f08c379a000000000000000000000000000000000000000000000000000000000815260040161246b90614825565b60405180910390fd5b600073ffffffffffffffffffffffffffffffffffffffff168273ffffffffffffffffffffffffffffffffffffffff1614156124e4576040517f08c379a00000000000000000000000000000000000000000000000000000000081526004016124db906146c5565b60405180910390fd5b6124ef838383612e31565b6124fa6000826120eb565b61254b81600360008673ffffffffffffffffffffffffffffffffffffffff1673ffffffffffffffffffffffffffffffffffffffff168152602001908152602001600020612e3690919063ffffffff16565b5061259d81600360008573ffffffffffffffffffffffffffffffffffffffff1673ffffffffffffffffffffffffffffffffffffffff168152602001908152602001600020612e5090919063ffffffff16565b506125b481836004612e6a9092919063ffffffff16565b50808273ffffffffffffffffffffffffffffffffffffffff168473ffffffffffffffffffffffffffffffffffffffff167fddf252ad1be2c89b69c2b068fc378daa952ba7f163c4a11628f55a4df523b3ef60405160405180910390a4505050565b600061262082611351565b905061262e81600084612e31565b6126396000836120eb565b600060096000848152602001908152602001600020805461265990614bda565b9050146126805760096000838152602001908152602001600020600061267f91906135a3565b5b6126d182600360008473ffffffffffffffffffffffffffffffffffffffff1673ffffffffffffffffffffffffffffffffffffffff168152602001908152602001600020612e3690919063ffffffff16565b506126e6826004612e9f90919063ffffffff16565b5081600073ffffffffffffffffffffffffffffffffffffffff168273ffffffffffffffffffffffffffffffffffffffff167fddf252ad1be2c89b69c2b068fc378daa952ba7f163c4a11628f55a4df523b3ef60405160405180910390a45050565b61276f81600b6000858152602001908152602001600020600001611fde90919063ffffffff16565b156127d75761277c6120dc565b73ffffffffffffffffffffffffffffffffffffffff168173ffffffffffffffffffffffffffffffffffffffff16837f2f8788117e7eff1d82e926ec794901d17c78024a50270940304540a733656f0d60405160405180910390a45b5050565b60006127ea8360000183612eb9565b60001c905092915050565b61281d81600b6000858152602001908152602001600020600001612f0a90919063ffffffff16565b156128855761282a6120dc565b73ffffffffffffffffffffffffffffffffffffffff168173ffffffffffffffffffffffffffffffffffffffff16837ff6391f5c32d9c69d2a47ea670b442974b53935d1edc7fd64eb21e047a839171b60405160405180910390a45b5050565b600073ffffffffffffffffffffffffffffffffffffffff168273ffffffffffffffffffffffffffffffffffffffff1614156128f9576040517f08c379a00000000000000000000000000000000000000000000000000000000081526004016128f0906147e5565b60405180910390fd5b612902816120bf565b15612942576040517f08c379a000000000000000000000000000000000000000000000000000000000815260040161293990614685565b60405180910390fd5b61294e60008383612e31565b61299f81600360008573ffffffffffffffffffffffffffffffffffffffff1673ffffffffffffffffffffffffffffffffffffffff168152602001908152602001600020612e5090919063ffffffff16565b506129b681836004612e6a9092919063ffffffff16565b50808273ffffffffffffffffffffffffffffffffffffffff16600073ffffffffffffffffffffffffffffffffffffffff167fddf252ad1be2c89b69c2b068fc378daa952ba7f163c4a11628f55a4df523b3ef60405160405180910390a45050565b600080600080612a2a8660000186612f3a565b915091508160001c8160001c9350935050509250929050565b6000612a56846000018460001b84612f7a565b60001c90509392505050565b6000612a7082600001612ffb565b9050919050565b6000612a868360000183612eb9565b60001c905092915050565b6000612ab9836000018373ffffffffffffffffffffffffffffffffffffffff1660001b61300c565b905092915050565b612acc8484846123fe565b612ad88484848461302f565b612b17576040517f08c379a0000000000000000000000000000000000000000000000000000000008152600401612b0e90614625565b60405180910390fd5b50505050565b60606000821415612b65576040518060400160405280600181526020017f30000000000000000000000000000000000000000000000000000000000000008152509050612cd7565b600082905060005b60008214612b97578080612b8090614c3d565b915050600a82612b909190614a6c565b9150612b6d565b60008167ffffffffffffffff811115612bd9577f4e487b7100000000000000000000000000000000000000000000000000000000600052604160045260246000fd5b6040519080825280601f01601f191660200182016040528015612c0b5781602001600182028036833780820191505090505b5090506000600183612c1d9190614a9d565b90508593505b60008414612ccf57600a84612c389190614cbe565b6030612c449190614a16565b60f81b828280612c5390614bb0565b935081518110612c8c577f4e487b7100000000000000000000000000000000000000000000000000000000600052603260045260246000fd5b60200101907effffffffffffffffffffffffffffffffffffffffffffffffffffffffffffff1916908160001a905350600a84612cc89190614a6c565b9350612c23565b819450505050505b919050565b6000612cea82600001612ffb565b9050919050565b6000612cfd838361300c565b612d56578260000182908060018154018082558091505060019003906000526020600020016000909190919091505582600001805490508360010160008481526020019081526020016000208190555060019050612d5b565b600090505b92915050565b6000612d73836000018360001b613193565b905092915050565b6000604051806080016040528060438152602001615582604391398051906020012082600001518360200151846040015180519060200120604051602001612dc69493929190614515565b604051602081830303815290604052805190602001209050919050565b6000612ded610f5e565b82604051602001612dff9291906143b9565b604051602081830303815290604052805190602001209050919050565b6000612e2a826000016131b3565b9050919050565b505050565b6000612e48836000018360001b6131c8565b905092915050565b6000612e62836000018360001b612cf1565b905092915050565b6000612e96846000018460001b8473ffffffffffffffffffffffffffffffffffffffff1660001b61334e565b90509392505050565b6000612eb1836000018360001b613389565b905092915050565b6000826000018281548110612ef7577f4e487b7100000000000000000000000000000000000000000000000000000000600052603260045260246000fd5b9060005260206000200154905092915050565b6000612f32836000018373ffffffffffffffffffffffffffffffffffffffff1660001b6131c8565b905092915050565b6000806000612f5584866000016133c290919063ffffffff16565b9050808560020160008381526020019081526020016000205492509250509250929050565b6000808460020160008581526020019081526020016000205490506000801b81141580612fad5750612fac8585613193565b5b8390612fef576040517f08c379a0000000000000000000000000000000000000000000000000000000008152600401612fe691906145c1565b60405180910390fd5b50809150509392505050565b600081600001805490509050919050565b600080836001016000848152602001908152602001600020541415905092915050565b60006130508473ffffffffffffffffffffffffffffffffffffffff166133d9565b61305d576001905061318b565b600061312463150b7a0260e01b6130726120dc565b8887876040516024016130889493929190614431565b604051602081830303815290604052907bffffffffffffffffffffffffffffffffffffffffffffffffffffffff19166020820180517bffffffffffffffffffffffffffffffffffffffffffffffffffffffff8381831617835250505050604051806060016040528060328152602001615550603291398773ffffffffffffffffffffffffffffffffffffffff166134249092919063ffffffff16565b905060008180602001905181019061313c9190613c6b565b905063150b7a0260e01b7bffffffffffffffffffffffffffffffffffffffffffffffffffffffff1916817bffffffffffffffffffffffffffffffffffffffffffffffffffffffff191614925050505b949350505050565b60006131ab828460000161343c90919063ffffffff16565b905092915050565b60006131c182600001612ffb565b9050919050565b600080836001016000848152602001908152602001600020549050600081146133425760006001826131fa9190614a9d565b90506000600186600001805490506132129190614a9d565b90508181146132cd576000866000018281548110613259577f4e487b7100000000000000000000000000000000000000000000000000000000600052603260045260246000fd5b90600052602060002001549050808760000184815481106132a3577f4e487b7100000000000000000000000000000000000000000000000000000000600052603260045260246000fd5b90600052602060002001819055508387600101600083815260200190815260200160002081905550505b85600001805480613307577f4e487b7100000000000000000000000000000000000000000000000000000000600052603160045260246000fd5b600190038181906000526020600020016000905590558560010160008681526020019081526020016000206000905560019350505050613348565b60009150505b92915050565b60008184600201600085815260200190815260200160002081905550613380838560000161345390919063ffffffff16565b90509392505050565b6000826002016000838152602001908152602001600020600090556133ba828460000161346a90919063ffffffff16565b905092915050565b60006133d18360000183612eb9565b905092915050565b60008060007fc5d2460186f7233c927e7db2dcc703c0e500b653ca82273b7bfad8045d85a47060001b9050833f915080821415801561341b57506000801b8214155b92505050919050565b60606134338484600085613481565b90509392505050565b600061344b836000018361300c565b905092915050565b60006134628360000183612cf1565b905092915050565b600061347983600001836131c8565b905092915050565b606061348c856133d9565b6134cb576040517f08c379a00000000000000000000000000000000000000000000000000000000081526004016134c2906148c5565b60405180910390fd5b6000808673ffffffffffffffffffffffffffffffffffffffff1685876040516134f49190614356565b60006040518083038185875af1925050503d8060008114613531576040519150601f19603f3d011682016040523d82523d6000602084013e613536565b606091505b5091509150811561354b57809250505061359b565b60008151111561355e5780518082602001fd5b836040517f08c379a000000000000000000000000000000000000000000000000000000000815260040161359291906145c1565b60405180910390fd5b949350505050565b5080546135af90614bda565b6000825580601f106135c157506135e0565b601f0160209004906000526020600020908101906135df91906135e3565b5b50565b5b808211156135fc5760008160009055506001016135e4565b5090565b600061361361360e84614945565b614920565b9050808382526020820190508285602086028201111561363257600080fd5b60005b8581101561366257816136488882613863565b845260208401935060208301925050600181019050613635565b5050509392505050565b600061367f61367a84614971565b614920565b90508281526020810184848401111561369757600080fd5b6136a2848285614b6e565b509392505050565b60006136bd6136b884614971565b614920565b9050828152602081018484840111156136d557600080fd5b6136e0848285614b7d565b509392505050565b6000813590506136f7816154c5565b92915050565b60008083601f84011261370f57600080fd5b8235905067ffffffffffffffff81111561372857600080fd5b60208301915083602082028301111561374057600080fd5b9250929050565b600082601f83011261375857600080fd5b8135613768848260208601613600565b91505092915050565b600081359050613780816154dc565b92915050565b600081359050613795816154f3565b92915050565b6000813590506137aa8161550a565b92915050565b6000815190506137bf8161550a565b92915050565b60008083601f8401126137d757600080fd5b8235905067ffffffffffffffff8111156137f057600080fd5b60208301915083600182028301111561380857600080fd5b9250929050565b600082601f83011261382057600080fd5b813561383084826020860161366c565b91505092915050565b600082601f83011261384a57600080fd5b815161385a8482602086016136aa565b91505092915050565b60008135905061387281615521565b92915050565b60008135905061388781615538565b92915050565b60006020828403121561389f57600080fd5b60006138ad848285016136e8565b91505092915050565b600080604083850312156138c957600080fd5b60006138d7858286016136e8565b92505060206138e8858286016136e8565b9150509250929050565b60008060006060848603121561390757600080fd5b6000613915868287016136e8565b9350506020613926868287016136e8565b925050604061393786828701613863565b9150509250925092565b6000806000806080858703121561395757600080fd5b6000613965878288016136e8565b9450506020613976878288016136e8565b935050604061398787828801613863565b925050606085013567ffffffffffffffff8111156139a457600080fd5b6139b08782880161380f565b91505092959194509250565b600080604083850312156139cf57600080fd5b60006139dd858286016136e8565b92505060206139ee85828601613771565b9150509250929050565b600080600060408486031215613a0d57600080fd5b6000613a1b868287016136e8565b935050602084013567ffffffffffffffff811115613a3857600080fd5b613a44868287016137c5565b92509250509250925092565b600080600080600060a08688031215613a6857600080fd5b6000613a76888289016136e8565b955050602086013567ffffffffffffffff811115613a9357600080fd5b613a9f8882890161380f565b9450506040613ab088828901613786565b9350506060613ac188828901613786565b9250506080613ad288828901613878565b9150509295509295909350565b60008060408385031215613af257600080fd5b6000613b00858286016136e8565b9250506020613b1185828601613863565b9150509250929050565b60008060208385031215613b2e57600080fd5b600083013567ffffffffffffffff811115613b4857600080fd5b613b54858286016136fd565b92509250509250929050565b600060208284031215613b7257600080fd5b600082013567ffffffffffffffff811115613b8c57600080fd5b613b9884828501613747565b91505092915050565b600060208284031215613bb357600080fd5b6000613bc184828501613786565b91505092915050565b60008060408385031215613bdd57600080fd5b6000613beb85828601613786565b9250506020613bfc858286016136e8565b9150509250929050565b60008060408385031215613c1957600080fd5b6000613c2785828601613786565b9250506020613c3885828601613863565b9150509250929050565b600060208284031215613c5457600080fd5b6000613c628482850161379b565b91505092915050565b600060208284031215613c7d57600080fd5b6000613c8b848285016137b0565b91505092915050565b600060208284031215613ca657600080fd5b600082015167ffffffffffffffff811115613cc057600080fd5b613ccc84828501613839565b91505092915050565b600060208284031215613ce757600080fd5b6000613cf584828501613863565b91505092915050565b613d0781614ae3565b82525050565b613d1681614ad1565b82525050565b613d2d613d2882614ad1565b614c86565b82525050565b6000613d3f83856149cd565b93507f07ffffffffffffffffffffffffffffffffffffffffffffffffffffffffffffff831115613d6e57600080fd5b602083029250613d7f838584614b6e565b82840190509392505050565b613d9481614af5565b82525050565b613da381614b01565b82525050565b613dba613db582614b01565b614c98565b82525050565b6000613dcb826149b7565b613dd581856149de565b9350613de5818560208601614b7d565b613dee81614dab565b840191505092915050565b6000613e04826149b7565b613e0e81856149ef565b9350613e1e818560208601614b7d565b80840191505092915050565b6000613e35826149c2565b613e3f81856149fa565b9350613e4f818560208601614b7d565b613e5881614dab565b840191505092915050565b6000613e6e826149c2565b613e788185614a0b565b9350613e88818560208601614b7d565b80840191505092915050565b60008154613ea181614bda565b613eab81866149fa565b94506001821660008114613ec65760018114613ed857613f0b565b60ff1983168652602086019350613f0b565b613ee1856149a2565b60005b83811015613f0357815481890152600182019150602081019050613ee4565b808801955050505b50505092915050565b60008154613f2181614bda565b613f2b8186614a0b565b94506001821660008114613f465760018114613f5757613f8a565b60ff19831686528186019350613f8a565b613f60856149a2565b60005b83811015613f8257815481890152600182019150602081019050613f63565b838801955050505b50505092915050565b6000613fa0602f836149fa565b9150613fab82614dc9565b604082019050919050565b6000613fc36032836149fa565b9150613fce82614e18565b604082019050919050565b6000613fe6602f836149fa565b9150613ff182614e67565b604082019050919050565b6000614009601c836149fa565b915061401482614eb6565b602082019050919050565b600061402c601c836149fa565b915061403782614edf565b602082019050919050565b600061404f600283614a0b565b915061405a82614f08565b600282019050919050565b6000614072601b836149fa565b915061407d82614f31565b602082019050919050565b6000614095602983614a0b565b91506140a082614f5a565b602982019050919050565b60006140b86024836149fa565b91506140c382614fa9565b604082019050919050565b60006140db6019836149fa565b91506140e682614ff8565b602082019050919050565b60006140fe602c836149fa565b915061410982615021565b604082019050919050565b60006141216030836149fa565b915061412c82615070565b604082019050919050565b60006141446025836149fa565b915061414f826150bf565b604082019050919050565b60006141676038836149fa565b91506141728261510e565b604082019050919050565b600061418a6028836149fa565b91506141958261515d565b604082019050919050565b60006141ad602a836149fa565b91506141b8826151ac565b604082019050919050565b60006141d06028836149fa565b91506141db826151fb565b604082019050919050565b60006141f36020836149fa565b91506141fe8261524a565b602082019050919050565b6000614216602c836149fa565b915061422182615273565b604082019050919050565b60006142396029836149fa565b9150614244826152c2565b604082019050919050565b600061425c6021836149fa565b915061426782615311565b604082019050919050565b600061427f602f836149fa565b915061428a82615360565b604082019050919050565b60006142a26021836149fa565b91506142ad826153af565b604082019050919050565b60006142c56031836149fa565b91506142d0826153fe565b604082019050919050565b60006142e8601d836149fa565b91506142f38261544d565b602082019050919050565b600061430b602f836149fa565b915061431682615476565b604082019050919050565b61432a81614b57565b82525050565b61434161433c82614b57565b614cb4565b82525050565b61435081614b61565b82525050565b60006143628284613df9565b915081905092915050565b60006143798285613df9565b91506143858284613d1c565b6014820191508190509392505050565b60006143a18285613f14565b91506143ad8284613e63565b91508190509392505050565b60006143c482614042565b91506143d08285613da9565b6020820191506143e08284613da9565b6020820191508190509392505050565b60006143fb82614088565b91506144078284614330565b60208201915081905092915050565b600060208201905061442b6000830184613d0d565b92915050565b60006080820190506144466000830187613cfe565b6144536020830186613d0d565b6144606040830185614321565b81810360608301526144728184613dc0565b905095945050505050565b60006060820190506144926000830186613d0d565b61449f6020830185613cfe565b81810360408301526144b18184613dc0565b9050949350505050565b600060208201905081810360008301526144d6818486613d33565b90509392505050565b60006020820190506144f46000830184613d8b565b92915050565b600060208201905061450f6000830184613d9a565b92915050565b600060808201905061452a6000830187613d9a565b6145376020830186614321565b6145446040830185613d0d565b6145516060830184613d9a565b95945050505050565b600060808201905061456f6000830187613d9a565b61457c6020830186614347565b6145896040830185613d9a565b6145966060830184613d9a565b95945050505050565b600060208201905081810360008301526145b98184613dc0565b905092915050565b600060208201905081810360008301526145db8184613e2a565b905092915050565b600060208201905081810360008301526145fd8184613e94565b905092915050565b6000602082019050818103600083015261461e81613f93565b9050919050565b6000602082019050818103600083015261463e81613fb6565b9050919050565b6000602082019050818103600083015261465e81613fd9565b9050919050565b6000602082019050818103600083015261467e81613ffc565b9050919050565b6000602082019050818103600083015261469e8161401f565b9050919050565b600060208201905081810360008301526146be81614065565b9050919050565b600060208201905081810360008301526146de816140ab565b9050919050565b600060208201905081810360008301526146fe816140ce565b9050919050565b6000602082019050818103600083015261471e816140f1565b9050919050565b6000602082019050818103600083015261473e81614114565b9050919050565b6000602082019050818103600083015261475e81614137565b9050919050565b6000602082019050818103600083015261477e8161415a565b9050919050565b6000602082019050818103600083015261479e8161417d565b9050919050565b600060208201905081810360008301526147be816141a0565b9050919050565b600060208201905081810360008301526147de816141c3565b9050919050565b600060208201905081810360008301526147fe816141e6565b9050919050565b6000602082019050818103600083015261481e81614209565b9050919050565b6000602082019050818103600083015261483e8161422c565b9050919050565b6000602082019050818103600083015261485e8161424f565b9050919050565b6000602082019050818103600083015261487e81614272565b9050919050565b6000602082019050818103600083015261489e81614295565b9050919050565b600060208201905081810360008301526148be816142b8565b9050919050565b600060208201905081810360008301526148de816142db565b9050919050565b600060208201905081810360008301526148fe816142fe565b9050919050565b600060208201905061491a6000830184614321565b92915050565b600061492a61493b565b90506149368282614c0c565b919050565b6000604051905090565b600067ffffffffffffffff8211156149605761495f614d7c565b5b602082029050602081019050919050565b600067ffffffffffffffff82111561498c5761498b614d7c565b5b61499582614dab565b9050602081019050919050565b60008190508160005260206000209050919050565b600081519050919050565b600081519050919050565b600082825260208201905092915050565b600082825260208201905092915050565b600081905092915050565b600082825260208201905092915050565b600081905092915050565b6000614a2182614b57565b9150614a2c83614b57565b9250827fffffffffffffffffffffffffffffffffffffffffffffffffffffffffffffffff03821115614a6157614a60614cef565b5b828201905092915050565b6000614a7782614b57565b9150614a8283614b57565b925082614a9257614a91614d1e565b5b828204905092915050565b6000614aa882614b57565b9150614ab383614b57565b925082821015614ac657614ac5614cef565b5b828203905092915050565b6000614adc82614b37565b9050919050565b6000614aee82614b37565b9050919050565b60008115159050919050565b6000819050919050565b60007fffffffff0000000000000000000000000000000000000000000000000000000082169050919050565b600073ffffffffffffffffffffffffffffffffffffffff82169050919050565b6000819050919050565b600060ff82169050919050565b82818337600083830152505050565b60005b83811015614b9b578082015181840152602081019050614b80565b83811115614baa576000848401525b50505050565b6000614bbb82614b57565b91506000821415614bcf57614bce614cef565b5b600182039050919050565b60006002820490506001821680614bf257607f821691505b60208210811415614c0657614c05614d4d565b5b50919050565b614c1582614dab565b810181811067ffffffffffffffff82111715614c3457614c33614d7c565b5b80604052505050565b6000614c4882614b57565b91507fffffffffffffffffffffffffffffffffffffffffffffffffffffffffffffffff821415614c7b57614c7a614cef565b5b600182019050919050565b6000614c9182614ca2565b9050919050565b6000819050919050565b6000614cad82614dbc565b9050919050565b6000819050919050565b6000614cc982614b57565b9150614cd483614b57565b925082614ce457614ce3614d1e565b5b828206905092915050565b7f4e487b7100000000000000000000000000000000000000000000000000000000600052601160045260246000fd5b7f4e487b7100000000000000000000000000000000000000000000000000000000600052601260045260246000fd5b7f4e487b7100000000000000000000000000000000000000000000000000000000600052602260045260246000fd5b7f4e487b7100000000000000000000000000000000000000000000000000000000600052604160045260246000fd5b6000601f19601f8301169050919050565b60008160601b9050919050565b7f416363657373436f6e74726f6c3a2073656e646572206d75737420626520616e60008201527f2061646d696e20746f206772616e740000000000000000000000000000000000602082015250565b7f4552433732313a207472616e7366657220746f206e6f6e20455243373231526560008201527f63656976657220696d706c656d656e7465720000000000000000000000000000602082015250565b7f4368696c644d696e7461626c654552433732313a20544f4b454e5f455849535460008201527f535f4f4e5f524f4f545f434841494e0000000000000000000000000000000000602082015250565b7f46756e6374696f6e2063616c6c206e6f74207375636365737366756c00000000600082015250565b7f4552433732313a20746f6b656e20616c7265616479206d696e74656400000000600082015250565b7f1901000000000000000000000000000000000000000000000000000000000000600082015250565b7f536166654d6174683a206164646974696f6e206f766572666c6f770000000000600082015250565b7f4368696c644d696e7461626c654552433732313a20494e56414c49445f544f4b60008201527f454e5f4f574e4552200000000000000000000000000000000000000000000000602082015250565b7f4552433732313a207472616e7366657220746f20746865207a65726f2061646460008201527f7265737300000000000000000000000000000000000000000000000000000000602082015250565b7f4552433732313a20617070726f766520746f2063616c6c657200000000000000600082015250565b7f4552433732313a206f70657261746f7220717565727920666f72206e6f6e657860008201527f697374656e7420746f6b656e0000000000000000000000000000000000000000602082015250565b7f416363657373436f6e74726f6c3a2073656e646572206d75737420626520616e60008201527f2061646d696e20746f207265766f6b6500000000000000000000000000000000602082015250565b7f4e61746976654d6574615472616e73616374696f6e3a20494e56414c49445f5360008201527f49474e4552000000000000000000000000000000000000000000000000000000602082015250565b7f4552433732313a20617070726f76652063616c6c6572206973206e6f74206f7760008201527f6e6572206e6f7220617070726f76656420666f7220616c6c0000000000000000602082015250565b7f4368696c644d696e7461626c654552433732313a20494e56414c49445f544f4b60008201527f454e5f4f574e4552000000000000000000000000000000000000000000000000602082015250565b7f4552433732313a2062616c616e636520717565727920666f7220746865207a6560008201527f726f206164647265737300000000000000000000000000000000000000000000602082015250565b7f4368696c644d696e7461626c654552433732313a20455843454544535f42415460008201527f43485f4c494d4954000000000000000000000000000000000000000000000000602082015250565b7f4552433732313a206d696e7420746f20746865207a65726f2061646472657373600082015250565b7f4552433732313a20617070726f76656420717565727920666f72206e6f6e657860008201527f697374656e7420746f6b656e0000000000000000000000000000000000000000602082015250565b7f4552433732313a207472616e73666572206f6620746f6b656e2074686174206960008201527f73206e6f74206f776e0000000000000000000000000000000000000000000000602082015250565b7f5369676e657220616e64207369676e617475726520646f206e6f74206d61746360008201527f6800000000000000000000000000000000000000000000000000000000000000602082015250565b7f4552433732314d657461646174613a2055524920717565727920666f72206e6f60008201527f6e6578697374656e7420746f6b656e0000000000000000000000000000000000602082015250565b7f4552433732313a20617070726f76616c20746f2063757272656e74206f776e6560008201527f7200000000000000000000000000000000000000000000000000000000000000602082015250565b7f4552433732313a207472616e736665722063616c6c6572206973206e6f74206f60008201527f776e6572206e6f7220617070726f766564000000000000000000000000000000602082015250565b7f416464726573733a2063616c6c20746f206e6f6e2d636f6e7472616374000000600082015250565b7f416363657373436f6e74726f6c3a2063616e206f6e6c792072656e6f756e636560008201527f20726f6c657320666f722073656c660000000000000000000000000000000000602082015250565b6154ce81614ad1565b81146154d957600080fd5b50565b6154e581614af5565b81146154f057600080fd5b50565b6154fc81614b01565b811461550757600080fd5b50565b61551381614b0b565b811461551e57600080fd5b50565b61552a81614b57565b811461553557600080fd5b50565b61554181614b61565b811461554c57600080fd5b5056fe4552433732313a207472616e7366657220746f206e6f6e20455243373231526563656976657220696d706c656d656e7465724d6574615472616e73616374696f6e2875696e74323536206e6f6e63652c616464726573732066726f6d2c62797465732066756e6374696f6e5369676e6174757265294552433732313a206f776e657220717565727920666f72206e6f6e6578697374656e7420746f6b656ea2646970667358221220f22cb98b774bfc1ed5a37de87c914f954736a36d2958996e5674fc87d2a411b064736f6c63430008040033454950373132446f6d61696e28737472696e67206e616d652c737472696e672076657273696f6e2c6164647265737320766572696679696e67436f6e74726163742c627974657333322073616c7429",
  "linkReferences": {},
  "deployedLinkReferences": {}
}